{
  "contractName": "Faucet",
  "abi": [
    {
      "inputs": [],
      "name": "funds",
      "outputs": [
        {
          "internalType": "uint256",
          "name": "",
          "type": "uint256"
        }
      ],
      "stateMutability": "view",
      "type": "function",
      "constant": true
    }
  ],
  "bytecode": "0x60806040526103e860005534801561001657600080fd5b5060b3806100256000396000f3fe6080604052348015600f57600080fd5b506004361060285760003560e01c8063c89f2ce414602d575b600080fd5b60336047565b604051603e91906064565b60405180910390f35b60005481565b6000819050919050565b605e81604d565b82525050565b6000602082019050607760008301846057565b9291505056fea26469706673582212206eb9417904eb56e48cbdc009e94cc6d1831c8f35106d7b0e92e629d1d117e67364736f6c63430008110033",
  "immutableReferences": {},
  "source": "pragma solidity >=0.4.16 <0.9.0;\r\n\r\n\r\n\r\ncontract Faucet{\r\n    uint public funds = 1000;\r\n}",
  "sourcePath": "H:\\web3 Development\\code\\project1\\contracts\\Faucet.sol",
  "compiler": {
    "name": "solc",
    "version": "0.8.17+commit.8df45f5f.Emscripten.clang"
  },
  "schemaVersion": "3.4.10",
  "updatedAt": "2022-11-21T22:20:41.750Z",
  "networkType": "ethereum",
  "devdoc": {
    "kind": "dev",
    "methods": {},
    "version": 1
  },
  "userdoc": {
    "kind": "user",
    "methods": {},
    "version": 1
  }
}